{
  "_format": "hh-sol-artifact-1",
  "contractName": "TokenSale",
  "sourceName": "contracts/ERC20/TokenSale.sol",
  "abi": [
    {
      "inputs": [
        {
          "internalType": "contract RewardToken",
          "name": "_tokenContract",
          "type": "address"
        },
        {
          "internalType": "uint256",
          "name": "_tokenPrice",
          "type": "uint256"
        }
      ],
      "stateMutability": "nonpayable",
      "type": "constructor"
    },
    {
      "anonymous": false,
      "inputs": [
        {
          "indexed": true,
          "internalType": "address",
          "name": "previousOwner",
          "type": "address"
        },
        {
          "indexed": true,
          "internalType": "address",
          "name": "newOwner",
          "type": "address"
        }
      ],
      "name": "OwnershipTransferred",
      "type": "event"
    },
    {
      "anonymous": false,
      "inputs": [
        {
          "indexed": true,
          "internalType": "address",
          "name": "buyer",
          "type": "address"
        },
        {
          "indexed": true,
          "internalType": "uint256",
          "name": "numberOfTokens",
          "type": "uint256"
        }
      ],
      "name": "Sell",
      "type": "event"
    },
    {
      "inputs": [
        {
          "internalType": "uint256",
          "name": "_numberOfTokens",
          "type": "uint256"
        }
      ],
      "name": "buyTokens",
      "outputs": [],
      "stateMutability": "payable",
      "type": "function"
    },
    {
      "inputs": [],
      "name": "endSale",
      "outputs": [],
      "stateMutability": "nonpayable",
      "type": "function"
    },
    {
      "inputs": [],
      "name": "owner",
      "outputs": [
        {
          "internalType": "address",
          "name": "",
          "type": "address"
        }
      ],
      "stateMutability": "view",
      "type": "function"
    },
    {
      "inputs": [],
      "name": "renounceOwnership",
      "outputs": [],
      "stateMutability": "nonpayable",
      "type": "function"
    },
    {
      "inputs": [],
      "name": "tokenContract",
      "outputs": [
        {
          "internalType": "contract RewardToken",
          "name": "",
          "type": "address"
        }
      ],
      "stateMutability": "view",
      "type": "function"
    },
    {
      "inputs": [],
      "name": "tokenPrice",
      "outputs": [
        {
          "internalType": "uint256",
          "name": "",
          "type": "uint256"
        }
      ],
      "stateMutability": "view",
      "type": "function"
    },
    {
      "inputs": [],
      "name": "tokensSold",
      "outputs": [
        {
          "internalType": "uint256",
          "name": "",
          "type": "uint256"
        }
      ],
      "stateMutability": "view",
      "type": "function"
    },
    {
      "inputs": [
        {
          "internalType": "address",
          "name": "newOwner",
          "type": "address"
        }
      ],
      "name": "transferOwnership",
      "outputs": [],
      "stateMutability": "nonpayable",
      "type": "function"
    }
  ],
  "bytecode": "0x608060405234801561001057600080fd5b506040516108c53803806108c58339818101604052604081101561003357600080fd5b508051602090910151600061004f6001600160e01b036100c216565b600080546001600160a01b0319166001600160a01b0383169081178255604051929350917f8be0079c531659141344cd1fd0a4f28419497f9722a3daafe3b4186f6b6457e0908290a350600180546001600160a01b0319166001600160a01b0393909316929092179091556002556100c6565b3390565b6107f0806100d56000396000f3fe60806040526004361061007b5760003560e01c8063715018a61161004e578063715018a61461010c5780637ff9b596146101215780638da5cb5b14610136578063f2fde38b1461014b5761007b565b80633610724e14610080578063380d831b1461009f578063518ab2a8146100b457806355a373d6146100db575b600080fd5b61009d6004803603602081101561009657600080fd5b503561017e565b005b3480156100ab57600080fd5b5061009d61034c565b3480156100c057600080fd5b506100c96104e7565b60408051918252519081900360200190f35b3480156100e757600080fd5b506100f06104ed565b604080516001600160a01b039092168252519081900360200190f35b34801561011857600080fd5b5061009d6104fc565b34801561012d57600080fd5b506100c96105ba565b34801561014257600080fd5b506100f06105c0565b34801561015757600080fd5b5061009d6004803603602081101561016e57600080fd5b50356001600160a01b03166105cf565b60025461019290829063ffffffff6106e316565b34146101d8576040805162461bcd60e51b815260206004820152601060248201526f1ddc9bdb99c8195d1a08185b5bdd5b9d60821b604482015290519081900360640190fd5b600154604080516370a0823160e01b8152306004820152905183926001600160a01b0316916370a08231916024808301926020929190829003018186803b15801561022257600080fd5b505afa158015610236573d6000803e3d6000fd5b505050506040513d602081101561024c57600080fd5b5051101561028b5760405162461bcd60e51b815260040180806020018281038252602a815260200180610770602a913960400191505060405180910390fd5b6001546040805163a9059cbb60e01b81523360048201526024810184905290516001600160a01b039092169163a9059cbb916044808201926020929091908290030181600087803b1580156102df57600080fd5b505af11580156102f3573d6000803e3d6000fd5b505050506040513d602081101561030957600080fd5b505161031457600080fd5b6003805482019055604051819033907f5e5e995ce3133561afceaa51a9a154d5db228cd7525d34df5185582c18d3df0990600090a350565b610354610745565b6001600160a01b03166103656105c0565b6001600160a01b0316146103c0576040805162461bcd60e51b815260206004820181905260248201527f4f776e61626c653a2063616c6c6572206973206e6f7420746865206f776e6572604482015290519081900360640190fd5b6001546001600160a01b031663a9059cbb6103d96105c0565b600154604080516370a0823160e01b815230600482015290516001600160a01b03909216916370a0823191602480820192602092909190829003018186803b15801561042457600080fd5b505afa158015610438573d6000803e3d6000fd5b505050506040513d602081101561044e57600080fd5b5051604080516001600160e01b031960e086901b1681526001600160a01b03909316600484015260248301919091525160448083019260209291908290030181600087803b15801561049f57600080fd5b505af11580156104b3573d6000803e3d6000fd5b505050506040513d60208110156104c957600080fd5b50516104d457600080fd5b6104dc6105c0565b6001600160a01b0316ff5b60035481565b6001546001600160a01b031681565b610504610745565b6001600160a01b03166105156105c0565b6001600160a01b031614610570576040805162461bcd60e51b815260206004820181905260248201527f4f776e61626c653a2063616c6c6572206973206e6f7420746865206f776e6572604482015290519081900360640190fd5b600080546040516001600160a01b03909116907f8be0079c531659141344cd1fd0a4f28419497f9722a3daafe3b4186f6b6457e0908390a3600080546001600160a01b0319169055565b60025481565b6000546001600160a01b031690565b6105d7610745565b6001600160a01b03166105e86105c0565b6001600160a01b031614610643576040805162461bcd60e51b815260206004820181905260248201527f4f776e61626c653a2063616c6c6572206973206e6f7420746865206f776e6572604482015290519081900360640190fd5b6001600160a01b0381166106885760405162461bcd60e51b815260040180806020018281038252602681526020018061074a6026913960400191505060405180910390fd5b600080546040516001600160a01b03808516939216917f8be0079c531659141344cd1fd0a4f28419497f9722a3daafe3b4186f6b6457e091a3600080546001600160a01b0319166001600160a01b0392909216919091179055565b6000826106f25750600061073f565b828202828482816106ff57fe5b041461073c5760405162461bcd60e51b815260040180806020018281038252602181526020018061079a6021913960400191505060405180910390fd5b90505b92915050565b339056fe4f776e61626c653a206e6577206f776e657220697320746865207a65726f206164647265737363616e6e6f74207075726368617365206d6f726520746f6b656e73207468616e206176616c6961626c65536166654d6174683a206d756c7469706c69636174696f6e206f766572666c6f77a2646970667358221220fd5b312d86f8fd03f869d7832389777681599f8e789803b2e86d3cc9db99713564736f6c63430006060033",
  "linkReferences": {},
  "deployedLinkReferences": {}
}