{
  "_format": "hh-sol-artifact-1",
  "contractName": "LiquidityManager",
  "sourceName": "contracts/LiquidityManager.sol",
  "abi": [
    {
      "inputs": [
        {
          "internalType": "address",
          "name": "_uniswap",
          "type": "address"
        },
        {
          "internalType": "address",
          "name": "_weth",
          "type": "address"
        }
      ],
      "stateMutability": "nonpayable",
      "type": "constructor"
    },
    {
      "anonymous": false,
      "inputs": [
        {
          "indexed": false,
          "internalType": "address",
          "name": "tokenA",
          "type": "address"
        },
        {
          "indexed": false,
          "internalType": "address",
          "name": "token2",
          "type": "address"
        },
        {
          "indexed": false,
          "internalType": "uint256",
          "name": "liquidity",
          "type": "uint256"
        },
        {
          "indexed": false,
          "internalType": "uint256",
          "name": "amountA",
          "type": "uint256"
        },
        {
          "indexed": false,
          "internalType": "uint256",
          "name": "amountB",
          "type": "uint256"
        }
      ],
      "name": "AddLiquidity",
      "type": "event"
    },
    {
      "inputs": [
        {
          "internalType": "address",
          "name": "_tokenB",
          "type": "address"
        },
        {
          "internalType": "uint256",
          "name": "_amountTokenB",
          "type": "uint256"
        },
        {
          "internalType": "uint256",
          "name": "_amountTokenMin",
          "type": "uint256"
        },
        {
          "internalType": "uint256",
          "name": "_amountEthMin",
          "type": "uint256"
        }
      ],
      "name": "addLiquidityEth",
      "outputs": [],
      "stateMutability": "payable",
      "type": "function"
    },
    {
      "inputs": [],
      "name": "uniswap",
      "outputs": [
        {
          "internalType": "contract IUniswap",
          "name": "",
          "type": "address"
        }
      ],
      "stateMutability": "view",
      "type": "function"
    },
    {
      "inputs": [],
      "name": "weth",
      "outputs": [
        {
          "internalType": "address",
          "name": "",
          "type": "address"
        }
      ],
      "stateMutability": "view",
      "type": "function"
    },
    {
      "stateMutability": "payable",
      "type": "receive"
    }
  ],
  "bytecode": "0x608060405234801561001057600080fd5b5060405161075c38038061075c8339818101604052604081101561003357600080fd5b508051602090910151600080546001600160a01b039384166001600160a01b031991821617909155600180549390921692169190911790556106e28061007a6000396000f3fe6080604052600436106100385760003560e01c80632681f7e4146100445780633fc8cef3146100755780634284aefa1461008a5761003f565b3661003f57005b600080fd5b34801561005057600080fd5b506100596100c4565b604080516001600160a01b039092168252519081900360200190f35b34801561008157600080fd5b506100596100d3565b6100c2600480360360808110156100a057600080fd5b506001600160a01b0381351690602081013590604081013590606001356100e2565b005b6000546001600160a01b031681565b6001546001600160a01b031681565b6100fd6001600160a01b03851633308663ffffffff61032716565b600080546040805163095ea7b360e01b81526001600160a01b0392831660048201526024810187905290519187169263095ea7b3926044808401936020939083900390910190829087803b15801561015457600080fd5b505af1158015610168573d6000803e3d6000fd5b505050506040513d602081101561017e57600080fd5b5050600154600080546040805163095ea7b360e01b81526001600160a01b0392831660048201523460248201529051919093169263095ea7b39260448083019360209390929083900390910190829087803b1580156101dc57600080fd5b505af11580156101f0573d6000803e3d6000fd5b505050506040513d602081101561020657600080fd5b5050600080546040805163f305d71960e01b81526001600160a01b0388811660048301526024820188905260448201879052606482018690523360848301524261012c0160a4830152915184938493169163f305d71991349160c48082019260609290919082900301818588803b15801561028057600080fd5b505af1158015610294573d6000803e3d6000fd5b50505050506040513d60608110156102ab57600080fd5b50805160208083015160409384015160015485516001600160a01b039182168152908d16938101939093528285018190526060830182905260808301849052935192965094509192507f2f3289d16dbc3007471d28c4936df3a95222bc938112449400d049637e3309ce9181900360a00190a150505050505050565b604080516001600160a01b0380861660248301528416604482015260648082018490528251808303909101815260849091019091526020810180516001600160e01b03166323b872dd60e01b179052610381908590610387565b50505050565b60606103dc826040518060400160405280602081526020017f5361666545524332303a206c6f772d6c6576656c2063616c6c206661696c6564815250856001600160a01b031661043d9092919063ffffffff16565b805190915015610438578080602001905160208110156103fb57600080fd5b50516104385760405162461bcd60e51b815260040180806020018281038252602a815260200180610683602a913960400191505060405180910390fd5b505050565b606061044c8484600085610456565b90505b9392505050565b6060824710156104975760405162461bcd60e51b815260040180806020018281038252602681526020018061065d6026913960400191505060405180910390fd5b6104a0856105b2565b6104f1576040805162461bcd60e51b815260206004820152601d60248201527f416464726573733a2063616c6c20746f206e6f6e2d636f6e7472616374000000604482015290519081900360640190fd5b60006060866001600160a01b031685876040518082805190602001908083835b602083106105305780518252601f199092019160209182019101610511565b6001836020036101000a03801982511681845116808217855250505050505090500191505060006040518083038185875af1925050503d8060008114610592576040519150601f19603f3d011682016040523d82523d6000602084013e610597565b606091505b50915091506105a78282866105b8565b979650505050505050565b3b151590565b606083156105c757508161044f565b8251156105d75782518084602001fd5b8160405162461bcd60e51b81526004018080602001828103825283818151815260200191508051906020019080838360005b83811015610621578181015183820152602001610609565b50505050905090810190601f16801561064e5780820380516001836020036101000a031916815260200191505b509250505060405180910390fdfe416464726573733a20696e73756666696369656e742062616c616e636520666f722063616c6c5361666545524332303a204552433230206f7065726174696f6e20646964206e6f742073756363656564a2646970667358221220f1b7f26db89f3e515d38d019414a5a7b5db2907afe00d7988cce4cd2aa7aae1e64736f6c63430006060033",
  "linkReferences": {},
  "deployedLinkReferences": {}
}