{
  "_format": "hh-sol-artifact-1",
  "contractName": "StakingRewardsFactory",
  "sourceName": "contracts/StakingManager.sol",
  "abi": [
    {
      "inputs": [
        {
          "internalType": "address",
          "name": "_rewardsToken",
          "type": "address"
        },
        {
          "internalType": "uint256",
          "name": "_stakingRewardsGenesis",
          "type": "uint256"
        },
        {
          "internalType": "address",
          "name": "_stakingToken",
          "type": "address"
        },
        {
          "internalType": "uint256",
          "name": "rewardAmount",
          "type": "uint256"
        },
        {
          "internalType": "uint256",
          "name": "rewardsDuration",
          "type": "uint256"
        },
        {
          "internalType": "address",
          "name": "_uniswap",
          "type": "address"
        },
        {
          "internalType": "address",
          "name": "_weth",
          "type": "address"
        }
      ],
      "stateMutability": "nonpayable",
      "type": "constructor"
    },
    {
      "anonymous": false,
      "inputs": [
        {
          "indexed": true,
          "internalType": "address",
          "name": "previousOwner",
          "type": "address"
        },
        {
          "indexed": true,
          "internalType": "address",
          "name": "newOwner",
          "type": "address"
        }
      ],
      "name": "OwnershipTransferred",
      "type": "event"
    },
    {
      "inputs": [],
      "name": "notifyRewardAmount",
      "outputs": [],
      "stateMutability": "nonpayable",
      "type": "function"
    },
    {
      "inputs": [],
      "name": "owner",
      "outputs": [
        {
          "internalType": "address",
          "name": "",
          "type": "address"
        }
      ],
      "stateMutability": "view",
      "type": "function"
    },
    {
      "inputs": [
        {
          "internalType": "address",
          "name": "token",
          "type": "address"
        },
        {
          "internalType": "uint256",
          "name": "amount",
          "type": "uint256"
        }
      ],
      "name": "pullExtraTokens",
      "outputs": [],
      "stateMutability": "nonpayable",
      "type": "function"
    },
    {
      "inputs": [],
      "name": "renounceOwnership",
      "outputs": [],
      "stateMutability": "nonpayable",
      "type": "function"
    },
    {
      "inputs": [],
      "name": "rewardsToken",
      "outputs": [
        {
          "internalType": "address",
          "name": "",
          "type": "address"
        }
      ],
      "stateMutability": "view",
      "type": "function"
    },
    {
      "inputs": [],
      "name": "stakingRewardsGenesis",
      "outputs": [
        {
          "internalType": "uint256",
          "name": "",
          "type": "uint256"
        }
      ],
      "stateMutability": "view",
      "type": "function"
    },
    {
      "inputs": [],
      "name": "stakingRewardsTokenInfo",
      "outputs": [
        {
          "internalType": "address payable",
          "name": "stakingRewards",
          "type": "address"
        },
        {
          "internalType": "uint256",
          "name": "rewardAmount",
          "type": "uint256"
        },
        {
          "internalType": "uint256",
          "name": "duration",
          "type": "uint256"
        }
      ],
      "stateMutability": "view",
      "type": "function"
    },
    {
      "inputs": [],
      "name": "stakingToken",
      "outputs": [
        {
          "internalType": "address",
          "name": "",
          "type": "address"
        }
      ],
      "stateMutability": "view",
      "type": "function"
    },
    {
      "inputs": [
        {
          "internalType": "address",
          "name": "newOwner",
          "type": "address"
        }
      ],
      "name": "transferOwnership",
      "outputs": [],
      "stateMutability": "nonpayable",
      "type": "function"
    },
    {
      "inputs": [
        {
          "internalType": "uint256",
          "name": "_rewardAmount",
          "type": "uint256"
        },
        {
          "internalType": "uint256",
          "name": "_rewardsDuration",
          "type": "uint256"
        }
      ],
      "name": "update",
      "outputs": [],
      "stateMutability": "nonpayable",
      "type": "function"
    }
  ],
  "bytecode": "0x608060405234801561001057600080fd5b50604051612270380380612270833981810160405260e081101561003357600080fd5b508051602082015160408301516060840151608085015160a086015160c090960151949593949293919290919060006100736001600160e01b036101cd16565b600080546001600160a01b0319166001600160a01b0383169081178255604051929350917f8be0079c531659141344cd1fd0a4f28419497f9722a3daafe3b4186f6b6457e0908290a350428610156100fc5760405162461bcd60e51b815260040180806020018281038252602d815260200180612243602d913960400191505060405180910390fd5b600180546001600160a01b03808a166001600160a01b03199283161792839055600289905560038054898316931692909217909155604051309290911690879085908590610149906101d1565b6001600160a01b039586168152938516602085015291841660408085019190915290841660608401529216608082015290519081900360a001906000f080158015610198573d6000803e3d6000fd5b50600480546001600160a01b0319166001600160a01b03929092169190911790555050600591909155600655506101de915050565b3390565b61182b80610a1883390190565b61082b806101ed6000396000f3fe608060405234801561001057600080fd5b506004361061009e5760003560e01c80637572719e116100665780637572719e1461012c5780638da5cb5b14610158578063a0928c1114610160578063d1af0c7d1461017a578063f2fde38b146101825761009e565b80630c51dde4146100a35780632fb565e8146100ad57806361838e6d146100d0578063715018a61461010057806372f702f314610108575b600080fd5b6100ab6101a8565b005b6100ab600480360360408110156100c357600080fd5b508035906020013561038d565b6100d8610441565b604080516001600160a01b039094168452602084019290925282820152519081900360600190f35b6100ab610459565b610110610505565b604080516001600160a01b039092168252519081900360200190f35b6100ab6004803603604081101561014257600080fd5b506001600160a01b038135169060200135610514565b6101106105f5565b610168610604565b60408051918252519081900360200190f35b61011061060a565b6100ab6004803603602081101561019857600080fd5b50356001600160a01b0316610619565b6002544210156101e95760405162461bcd60e51b815260040180806020018281038252602d8152602001806107a9602d913960400191505060405180910390fd5b6004546001600160a01b03166102305760405162461bcd60e51b81526004018080602001828103825260308152602001806107206030913960400191505060405180910390fd5b60055415801590610242575060065415155b1561038b57600580546006805460009384905590839055600154600480546040805163a9059cbb60e01b81526001600160a01b039283169381019390935260248301869052519495939492169263a9059cbb926044808401936020939083900390910190829087803b1580156102b757600080fd5b505af11580156102cb573d6000803e3d6000fd5b505050506040513d60208110156102e157600080fd5b505161031e5760405162461bcd60e51b81526004018080602001828103825260338152602001806107766033913960400191505060405180910390fd5b600480546040805163246132f960e01b815292830185905260248301849052516001600160a01b039091169163246132f991604480830192600092919082900301818387803b15801561037057600080fd5b505af1158015610384573d6000803e3d6000fd5b5050505050505b565b61039561071b565b6001600160a01b03166103a66105f5565b6001600160a01b0316146103ef576040805162461bcd60e51b815260206004820181905260248201526000805160206107d6833981519152604482015290519081900360640190fd5b6004546001600160a01b03166104365760405162461bcd60e51b81526004018080602001828103825260308152602001806107206030913960400191505060405180910390fd5b600591909155600655565b6004546005546006546001600160a01b039092169183565b61046161071b565b6001600160a01b03166104726105f5565b6001600160a01b0316146104bb576040805162461bcd60e51b815260206004820181905260248201526000805160206107d6833981519152604482015290519081900360640190fd5b600080546040516001600160a01b03909116907f8be0079c531659141344cd1fd0a4f28419497f9722a3daafe3b4186f6b6457e0908390a3600080546001600160a01b0319169055565b6003546001600160a01b031681565b61051c61071b565b6001600160a01b031661052d6105f5565b6001600160a01b031614610576576040805162461bcd60e51b815260206004820181905260248201526000805160206107d6833981519152604482015290519081900360640190fd5b6040805163a9059cbb60e01b81523360048201526024810183905290516001600160a01b0384169163a9059cbb9160448083019260209291908290030181600087803b1580156105c557600080fd5b505af11580156105d9573d6000803e3d6000fd5b505050506040513d60208110156105ef57600080fd5b50505050565b6000546001600160a01b031690565b60025481565b6001546001600160a01b031681565b61062161071b565b6001600160a01b03166106326105f5565b6001600160a01b03161461067b576040805162461bcd60e51b815260206004820181905260248201526000805160206107d6833981519152604482015290519081900360640190fd5b6001600160a01b0381166106c05760405162461bcd60e51b81526004018080602001828103825260268152602001806107506026913960400191505060405180910390fd5b600080546040516001600160a01b03808516939216917f8be0079c531659141344cd1fd0a4f28419497f9722a3daafe3b4186f6b6457e091a3600080546001600160a01b0319166001600160a01b0392909216919091179055565b339056fe5374616b696e674d616e616765723a3a6e6f74696679526577617264416d6f756e743a206e6f74206465706c6f7965644f776e61626c653a206e6577206f776e657220697320746865207a65726f20616464726573735374616b696e674d616e616765723a3a6e6f74696679526577617264416d6f756e743a207472616e73666572206661696c65645374616b696e674d616e616765723a3a6e6f74696679526577617264416d6f756e743a206e6f742072656164794f776e61626c653a2063616c6c6572206973206e6f7420746865206f776e6572a2646970667358221220515a7a8d8dcd1c3015982c4b2e2dc41d40daa0dc7948677c76a96652e0863d6d64736f6c6343000606003360806040526000600655600060075534801561001a57600080fd5b5060405161182b38038061182b833981810160405260a081101561003d57600080fd5b50805160208201516040830151606084015160809094015160018055600280546001600160a01b039687166001600160a01b031991821617909155600380549287169282169290921790915560048054938616938216939093179092556005805491851691831691909117905560008054939092169216919091179055611762806100c96000396000f3fe6080604052600436106101385760003560e01c806372f702f3116100ab578063c8f33c911161006f578063c8f33c91146103a4578063cd3daf9d146103b9578063d1af0c7d146103ce578063df136d65146103e3578063ebe2b12b146103f8578063ecd9ba821461040d5761013f565b806372f702f3146103085780637b0a47ee1461031d57806380faa57d146103325780638b87634714610347578063a694fc3a1461037a5761013f565b80632e17de78116100fd5780632e17de78146102345780633fc6df6e1461025e5780633fc8cef3146102735780634284aefa1461028857806348c54b9d146102c057806370a08231146102d55761013f565b80628cc262146101445780630700037d1461018957806318160ddd146101bc578063246132f9146101d15780632681f7e4146102035761013f565b3661013f57005b600080fd5b34801561015057600080fd5b506101776004803603602081101561016757600080fd5b50356001600160a01b0316610452565b60408051918252519081900360200190f35b34801561019557600080fd5b50610177600480360360208110156101ac57600080fd5b50356001600160a01b03166104e8565b3480156101c857600080fd5b506101776104fa565b3480156101dd57600080fd5b50610201600480360360408110156101f457600080fd5b5080359060200135610501565b005b34801561020f57600080fd5b506102186107b7565b604080516001600160a01b039092168252519081900360200190f35b34801561024057600080fd5b506102016004803603602081101561025757600080fd5b50356107c6565b34801561026a57600080fd5b50610218610955565b34801561027f57600080fd5b50610218610964565b6102016004803603608081101561029e57600080fd5b506001600160a01b038135169060208101359060408101359060600135610973565b3480156102cc57600080fd5b50610201610bb5565b3480156102e157600080fd5b50610177600480360360208110156102f857600080fd5b50356001600160a01b0316610cd9565b34801561031457600080fd5b50610218610cf4565b34801561032957600080fd5b50610177610d03565b34801561033e57600080fd5b50610177610d09565b34801561035357600080fd5b506101776004803603602081101561036a57600080fd5b50356001600160a01b0316610d1c565b34801561038657600080fd5b506102016004803603602081101561039d57600080fd5b5035610d2e565b3480156103b057600080fd5b50610177610ebb565b3480156103c557600080fd5b50610177610ec1565b3480156103da57600080fd5b50610218610f1b565b3480156103ef57600080fd5b50610177610f2a565b34801561040457600080fd5b50610177610f30565b34801561041957600080fd5b50610201600480360360a081101561043057600080fd5b5080359060208101359060ff6040820135169060608101359060800135610f36565b6001600160a01b0381166000908152600b6020908152604080832054600a9092528220546104e291906104d690670de0b6b3a7640000906104ca906104a590610499610ec1565b9063ffffffff61115816565b6001600160a01b0388166000908152600d60205260409020549063ffffffff6111b516565b9063ffffffff61121516565b9063ffffffff61127c16565b92915050565b600b6020526000908152604090205481565b600c545b90565b6000546001600160a01b0316331461054a5760405162461bcd60e51b815260040180806020018281038252602a8152602001806116d9602a913960400191505060405180910390fd5b6000610554610ec1565b60095561055f610d09565b6008556001600160a01b038116156105a65761057a81610452565b6001600160a01b0382166000908152600b6020908152604080832093909355600954600a909152919020555b6006546105b9428463ffffffff61127c16565b101561060c576040805162461bcd60e51b815260206004820152601d60248201527f43616e6e6f7420726564756365206578697374696e6720706572696f64000000604482015290519081900360640190fd5b600654421061062d57610625838363ffffffff61121516565b600755610678565b600654600090610643904263ffffffff61115816565b9050600061065c600754836111b590919063ffffffff16565b9050610672846104ca878463ffffffff61127c16565b60075550505b60048054604080516370a0823160e01b81523093810193909352516000926001600160a01b03909216916370a08231916024808301926020929190829003018186803b1580156106c757600080fd5b505afa1580156106db573d6000803e3d6000fd5b505050506040513d60208110156106f157600080fd5b50519050610705818463ffffffff61121516565b600754111561075b576040805162461bcd60e51b815260206004820152601860248201527f50726f76696465642072657761726420746f6f20686967680000000000000000604482015290519081900360640190fd5b426008819055610771908463ffffffff61127c16565b600681905560408051868152602081019290925280517f6c07ee05dcf262f13abf9d87b846ee789d2f90fe991d495acd7d7fc109ee1f559281900390910190a150505050565b6002546001600160a01b031681565b6002600154141561080c576040805162461bcd60e51b815260206004820152601f6024820152600080516020611672833981519152604482015290519081900360640190fd5b60026001553361081a610ec1565b600955610825610d09565b6008556001600160a01b0381161561086c5761084081610452565b6001600160a01b0382166000908152600b6020908152604080832093909355600954600a909152919020555b600082116108b5576040805162461bcd60e51b8152602060048201526011602482015270043616e6e6f74207769746864726177203607c1b604482015290519081900360640190fd5b600c546108c8908363ffffffff61115816565b600c55336000908152600d60205260409020546108eb908363ffffffff61115816565b336000818152600d6020526040902091909155600554610917916001600160a01b0390911690846112d6565b60408051838152905133917f7084f5476618d8e60b11ef0d7d3f06914655adb8793e28ff7f018d4c76d505d5919081900360200190a2505060018055565b6000546001600160a01b031681565b6003546001600160a01b031681565b61098e6001600160a01b03851633308663ffffffff61132d16565b6002546040805163095ea7b360e01b81526001600160a01b0392831660048201526024810186905290519186169163095ea7b3916044808201926020929091908290030181600087803b1580156109e457600080fd5b505af11580156109f8573d6000803e3d6000fd5b505050506040513d6020811015610a0e57600080fd5b50506003546002546040805163095ea7b360e01b81526001600160a01b0392831660048201523460248201529051919092169163095ea7b39160448083019260209291908290030181600087803b158015610a6857600080fd5b505af1158015610a7c573d6000803e3d6000fd5b505050506040513d6020811015610a9257600080fd5b50506002546040805163f305d71960e01b81526001600160a01b0387811660048301526024820187905260448201869052606482018590523360848301524261012c0160a483015291516000938493849391169163f305d71991349160c480830192606092919082900301818588803b158015610b0e57600080fd5b505af1158015610b22573d6000803e3d6000fd5b50505050506040513d6060811015610b3957600080fd5b50805160208083015160409384015160035485516001600160a01b039182168152908d16938101939093528285018190526060830182905260808301849052935192965094509192507f2f3289d16dbc3007471d28c4936df3a95222bc938112449400d049637e3309ce9181900360a00190a150505050505050565b60026001541415610bfb576040805162461bcd60e51b815260206004820152601f6024820152600080516020611672833981519152604482015290519081900360640190fd5b600260015533610c09610ec1565b600955610c14610d09565b6008556001600160a01b03811615610c5b57610c2f81610452565b6001600160a01b0382166000908152600b6020908152604080832093909355600954600a909152919020555b336000908152600b60205260409020548015610cd157336000818152600b6020526040812055600454610c9a916001600160a01b0390911690836112d6565b60408051828152905133917fe2403640ba68fed3a2f88b7557551d1993f84b99bb10ff833f0cf8db0c5e0486919081900360200190a25b505060018055565b6001600160a01b03166000908152600d602052604090205490565b6005546001600160a01b031681565b60075481565b6000610d174260065461138d565b905090565b600a6020526000908152604090205481565b60026001541415610d74576040805162461bcd60e51b815260206004820152601f6024820152600080516020611672833981519152604482015290519081900360640190fd5b600260015533610d82610ec1565b600955610d8d610d09565b6008556001600160a01b03811615610dd457610da881610452565b6001600160a01b0382166000908152600b6020908152604080832093909355600954600a909152919020555b60008211610e1a576040805162461bcd60e51b815260206004820152600e60248201526d043616e6e6f74207374616b6520360941b604482015290519081900360640190fd5b600c54610e2d908363ffffffff61127c16565b600c55336000908152600d6020526040902054610e50908363ffffffff61127c16565b336000818152600d6020526040902091909155600554610e7d916001600160a01b0390911690308561132d565b60408051838152905133917f9e71bc8eea02a63969f509818f2dafb9254532904319f9dbda79b67bd34a5f3d919081900360200190a2505060018055565b60085481565b6000600c5460001415610ed757506009546104fe565b610d17610f0c600c546104ca670de0b6b3a7640000610f00600754610f00600854610499610d09565b9063ffffffff6111b516565b6009549063ffffffff61127c16565b6004546001600160a01b031681565b60095481565b60065481565b60026001541415610f7c576040805162461bcd60e51b815260206004820152601f6024820152600080516020611672833981519152604482015290519081900360640190fd5b600260015533610f8a610ec1565b600955610f95610d09565b6008556001600160a01b03811615610fdc57610fb081610452565b6001600160a01b0382166000908152600b6020908152604080832093909355600954600a909152919020555b60008611611022576040805162461bcd60e51b815260206004820152600e60248201526d043616e6e6f74207374616b6520360941b604482015290519081900360640190fd5b600c54611035908763ffffffff61127c16565b600c55336000908152600d6020526040902054611058908763ffffffff61127c16565b336000818152600d602052604080822093909355600554835163d505accf60e01b81526004810193909352306024840152604483018a90526064830189905260ff8816608484015260a4830187905260c4830186905292516001600160a01b039093169263d505accf9260e480820193929182900301818387803b1580156110df57600080fd5b505af11580156110f3573d6000803e3d6000fd5b505060055461111692506001600160a01b0316905033308963ffffffff61132d16565b60408051878152905133917f9e71bc8eea02a63969f509818f2dafb9254532904319f9dbda79b67bd34a5f3d919081900360200190a250506001805550505050565b6000828211156111af576040805162461bcd60e51b815260206004820152601e60248201527f536166654d6174683a207375627472616374696f6e206f766572666c6f770000604482015290519081900360640190fd5b50900390565b6000826111c4575060006104e2565b828202828482816111d157fe5b041461120e5760405162461bcd60e51b81526004018080602001828103825260218152602001806116b86021913960400191505060405180910390fd5b9392505050565b600080821161126b576040805162461bcd60e51b815260206004820152601a60248201527f536166654d6174683a206469766973696f6e206279207a65726f000000000000604482015290519081900360640190fd5b81838161127457fe5b049392505050565b60008282018381101561120e576040805162461bcd60e51b815260206004820152601b60248201527f536166654d6174683a206164646974696f6e206f766572666c6f770000000000604482015290519081900360640190fd5b604080516001600160a01b038416602482015260448082018490528251808303909101815260649091019091526020810180516001600160e01b031663a9059cbb60e01b1790526113289084906113a3565b505050565b604080516001600160a01b0380861660248301528416604482015260648082018490528251808303909101815260849091019091526020810180516001600160e01b03166323b872dd60e01b1790526113879085906113a3565b50505050565b600081831061139c578161120e565b5090919050565b60606113f8826040518060400160405280602081526020017f5361666545524332303a206c6f772d6c6576656c2063616c6c206661696c6564815250856001600160a01b03166114549092919063ffffffff16565b8051909150156113285780806020019051602081101561141757600080fd5b50516113285760405162461bcd60e51b815260040180806020018281038252602a815260200180611703602a913960400191505060405180910390fd5b6060611463848460008561146b565b949350505050565b6060824710156114ac5760405162461bcd60e51b81526004018080602001828103825260268152602001806116926026913960400191505060405180910390fd5b6114b5856115c7565b611506576040805162461bcd60e51b815260206004820152601d60248201527f416464726573733a2063616c6c20746f206e6f6e2d636f6e7472616374000000604482015290519081900360640190fd5b60006060866001600160a01b031685876040518082805190602001908083835b602083106115455780518252601f199092019160209182019101611526565b6001836020036101000a03801982511681845116808217855250505050505090500191505060006040518083038185875af1925050503d80600081146115a7576040519150601f19603f3d011682016040523d82523d6000602084013e6115ac565b606091505b50915091506115bc8282866115cd565b979650505050505050565b3b151590565b606083156115dc57508161120e565b8251156115ec5782518084602001fd5b8160405162461bcd60e51b81526004018080602001828103825283818151815260200191508051906020019080838360005b8381101561163657818101518382015260200161161e565b50505050905090810190601f1680156116635780820380516001836020036101000a031916815260200191505b509250505060405180910390fdfe5265656e7472616e637947756172643a207265656e7472616e742063616c6c00416464726573733a20696e73756666696369656e742062616c616e636520666f722063616c6c536166654d6174683a206d756c7469706c69636174696f6e206f766572666c6f7743616c6c6572206973206e6f742052657761726473446973747269627574696f6e20636f6e74726163745361666545524332303a204552433230206f7065726174696f6e20646964206e6f742073756363656564a2646970667358221220f4d0504b07a74c025c3ee054137100de8d3641783e8fd75a39fdb05d8754ed0064736f6c634300060600335374616b696e674d616e616765723a3a636f6e7374727563746f723a2067656e6573697320746f6f20736f6f6e",
  "linkReferences": {},
  "deployedLinkReferences": {}
}